:100000000C9462000C948A000C948A000C948A0070
:100010000C948A000C948A000C948A000C948A0038
:100020000C948A000C948A000C948A000C948A0028
:100030000C948A000C948A000C948A000C948A0018
:100040000C9499030C948A000C9467030C9441035C
:100050000C948A000C948A000C948A000C948A00F8
:100060000C948A000C948A000000000024002700F1
:100070002A0000000000250028002B0000000000DE
:1000800023002600290004040404040404040202DA
:100090000202020203030303030301020408102007
:1000A0004080010204081020010204081020000012
:1000B0000008000201000003040700000000000027
:1000C0000000390511241FBECFEFD8E0DEBFCDBF41
:1000D00013E0A0E0B1E0ECE3FBE002C005900D927C
:1000E000A630B107D9F723E0A6E0B3E001C01D9226
:1000F000A53BB207E1F710E0C2E6D0E004C02197CB
:10010000FE010E949605C136D107C9F70E94E3039C
:100110000C9466050C940000CF92DF92EF92FF9250
:100120000F931F93CF93DF936C017A018B01C0E093
:10013000D0E0CE15DF0581F0D8016D918D01D6019B
:10014000ED91FC910190F081E02DC6010995892B7C
:1001500011F02196EECF7E01C701DF91CF911F9163
:100160000F91FF90EF90DF90CF900895089580E079
:1001700090E00895FC01538D448D252F30E0842FAD
:1001800090E0821B930B541710F0CF9608950197BF
:100190000895FC01918D828D981761F0828DDF01A9
:1001A000A80FB11D5D968C91928D9F5F9F73928F6A
:1001B00090E008958FEF9FEF0895FC01918D828D5F
:1001C000981731F0828DE80FF11D858D90E008952C
:1001D0008FEF9FEF0895FC01918D228D892F90E084
:1001E000805C9F4F821B91098F739927089588E146
:1001F00093E00E94EB0021E0892B09F420E0822F9C
:100200000895FC01848DDF01A80FB11DA35ABF4FD3
:100210002C91848D90E001968F739927848FA68905
:10022000B7892C93A089B1898C91837080648C9359
:10023000938D848D981306C00288F389E02D808108
:100240008F7D80830895EF92FF920F931F93CF933A
:10025000DF93EC0181E0888F9B8D8C8D981305C016
:10026000E889F989808185FD26C0F62E0B8D10E086
:100270000F5F1F4F0F731127E02E8C8DE8120CC0FB
:100280000FB607FCFACFE889F989808185FFF5CFA1
:10029000CE010E940101F1CF8B8DFE01E80FF11D0F
:1002A000E35AFF4FF0829FB7F8940B8FEA89FB89DE
:1002B000808180620AC09FB7F894EE89FF896083CD
:1002C000E889F98980818370806480839FBF81E0A1
:1002D00090E0DF91CF911F910F91FF90EF900895E3
:1002E000CF93DF93EC01888D8823C9F0EA89FB89DD
:1002F000808185FD05C0A889B9898C9186FD0FC0D4
:100300000FB607FCF5CF808185FFF2CFA889B989A8
:100310008C9185FFEDCFCE010E940101E7CFDF91E7
:10032000CF91089580E090E0892B29F00E94F7009A
:1003300081110C9400000895833081F028F48130FD
:1003400099F08230A1F008958730A9F08830B9F093
:100350008430D1F4809180008F7D03C08091800033
:100360008F7780938000089584B58F7702C084B51D
:100370008F7D84BD08958091B0008F7703C08091F8
:10038000B0008F7D8093B0000895CF93DF93282F26
:1003900030E0F901E255FF4F8491F901E656FF4F35
:1003A000D491F901EA57FF4FC491CC2391F0811108
:1003B0000E949C01EC2FF0E0EE0FFF1FE458FF4F6E
:1003C000A591B491EC91ED2381E090E021F480E0DF
:1003D00002C080E090E0DF91CF9108951F93CF930A
:1003E000DF93282F30E0F901E255FF4F8491F901A6
:1003F000E656FF4FD491F901EA57FF4FC491CC2341
:10040000C1F0162F81110E949C01EC2FF0E0EE0F3D
:10041000FF1FEE58FF4FA591B4919FB7F8941111AB
:1004200004C08C91D095D82302C0EC91DE2BDC93D4
:100430009FBFDF91CF911F910895CF93DF9390E0FD
:10044000FC01E656FF4F2491FC01EA57FF4F8491CF
:10045000882361F190E0880F991FFC01E859FF4F54
:10046000C591D491FC01EE58FF4FA591B491611153
:1004700009C09FB7F8948881209582238883EC91E6
:100480002E230BC0623061F49FB7F8948881322F1D
:10049000309583238883EC912E2B2C939FBF06C02D
:1004A0008FB7F894E8812E2B28838FBFDF91CF91EF
:1004B00008953FB7F8948091090390910A03A091A1
:1004C0000B03B0910C0326B5A89B05C02F3F19F074
:1004D0000196A11DB11D3FBFBA2FA92F982F8827C4
:1004E000820F911DA11DB11DBC01CD0142E0660F1F
:1004F000771F881F991F4A95D1F708958F929F9271
:10050000AF92BF92CF92DF92EF92FF926B017C018C
:100510000E9459024B015C01C114D104E104F104B1
:10052000F1F00E945902DC01CB0188199909AA094E
:10053000BB09883E9340A105B10570F321E0C21AC2
:10054000D108E108F10888EE880E83E0981EA11C0E
:10055000B11CC114D104E104F10419F7DDCFFF90FF
:10056000EF90DF90CF90BF90AF909F908F900895C5
:10057000009769F0FC0101900020E9F73197AF0185
:10058000481B590BBC0188E193E00C948C0080E07F
:1005900090E00895CF93DF930E94B802EC018AE3C4
:1005A00091E00E94B8028C0F9D1FDF91CF910895BA
:1005B000CF92DF92EF92FF920F931F93CF93DF932F
:1005C0008DE391E00E94CA028CE491E00E94CA028D
:1005D000E12C48E0F42E32E3C32E31E0D32EC0E00C
:1005E000D0E00091060310910703F6018081F2E04C
:1005F000CF0ED11CF801EE0FFF1FEE0FFF1FEC0F07
:10060000FD1FEE0FFF1FE050FF4F60810E94EE01C3
:100610002196C430D10529F7C8010196BE010E9478
:100620006E05909307038093060363E070E080E01B
:1006300090E00E947E0281E0E81AF10861F660E035
:1006400088E00E94EE0160E089E00E94EE0160E037
:100650008AE00E94EE0160E08BE00E94EE018AE7F2
:1006600091E00E94CA0282E891E0DF91CF911F9150
:100670000F91FF90EF90DF90CF900C94CA020E94F0
:1006800069051F920F920FB60F9211242F933F937B
:100690004F935F936F937F938F939F93AF93BF938A
:1006A000EF93FF9388E193E00E940101FF91EF91A6
:1006B000BF91AF919F918F917F916F915F914F917A
:1006C0003F912F910F900FBE0F901F9018951F9282
:1006D0000F920FB60F9211242F938F939F93EF9346
:1006E000FF93E0912803F09129038081E0912E038C
:1006F000F0912F0382FD12C09081809131038F5FB2
:100700008F7320913203821751F0E0913103F0E0B2
:10071000E85EFC4F958F8093310301C08081FF918B
:10072000EF919F918F912F910F900FBE0F901F907F
:1007300018951F920F920FB60F9211242F933F938B
:100740008F939F93AF93BF9380910E0390910F036C
:10075000A0911003B09111033091080323E0230FFF
:100760002D3720F40196A11DB11D05C026E8230FE9
:100770000296A11DB11D2093080380930E03909350
:100780000F03A0931003B09311038091090390917C
:100790000A03A0910B03B0910C030196A11DB11D9A
:1007A0008093090390930A03A0930B03B0930C0367
:1007B000BF91AF919F918F913F912F910F900FBE5D
:1007C0000F901F901895789484B5826084BD84B58D
:1007D000816084BD85B5826085BD85B5816085BD3C
:1007E00080916E00816080936E00109281008091F4
:1007F000810082608093810080918100816080937C
:100800008100809180008160809380008091B100A0
:1008100084608093B1008091B00081608093B000CB
:1008200080917A00846080937A0080917A0082605F
:1008300080937A0080917A00816080937A00809121
:100840007A00806880937A001092C100E0912803BA
:10085000F091290382E08083E0912403F091250345
:100860001082E0912603F09127038FEC8083109291
:100870003003E0912C03F0912D0386E08083E0911A
:100880002A03F0912B03808180618083E0912A0309
:10089000F0912B03808188608083E0912A03F0919E
:1008A0002B03808180688083E0912A03F0912B03E1
:1008B00080818F7D808360E082E00E941D0262E083
:1008C00083E00E941D0261E08DE00E941D0261E054
:1008D00088E00E941D0261E089E00E941D0261E043
:1008E0008AE00E941D0261E08BE00E941D021092CE
:1008F000120360E08DE00E94EE018AEA91E00E941E
:10090000CA028CEC91E00E94CA0285EE91E00E943E
:10091000CA02D1E088E193E00E94EB00892BE1F16B
:1009200088E193E00E94C900883591F03CF480355D
:1009300091F0833511F18C3479F516C0803759F078
:100940001CF48C3689F028C08337B9F0883721F53C
:100950000E94D80221C0D093120361E08DE00E9472
:10096000EE0188E192E016C01092120360E08DE083
:100970000E94EE018CE492E00DC088E792E00E94B4
:10098000B80280911203811103C08CED91E002C086
:1009900080EA91E00E94CA0282E00E94C501C1E0A3
:1009A000009709F4C0E0892B59F080911203882345
:1009B00079F080910D0381110BC080E892E006C0B0
:1009C00080910D03882321F087E992E00E94CA02FA
:1009D000C0930D0383E00E94C501C1E0009709F4B4
:1009E000C0E02FB7F89440910E0350910F0360912F
:1009F0001003709111032FBF009114031091150380
:100A000020911603309117036A017B01C01AD10AA5
:100A1000E20AF30A97018601053611052105310521
:100A2000E8F0892BD9F4809113038823B9F040931F
:100A3000140350931503609316037093170380916A
:100A40001203882339F08FEA92E00E94CA020E94C2
:100A5000D80204C089ED92E00E94CA02C093130339
:100A600064E170E080E090E00E947E020E949201CA
:100A700051CFE8E1F3E01382128288EE93E0A0E028
:100A8000B0E084839583A683B78384E291E0918369
:100A9000808385EC90E09587848784EC90E097874D
:100AA000868780EC90E0918B808B81EC90E0938B3B
:100AB000828B82EC90E0958B848B86EC90E0978B18
:100AC000868B118E128E138E148E0895F8940C94CA
:100AD0009C0581E090E0F8940C949C0597FB072E10
:100AE00016F4009407D077FD09D00E94820507FC18
:100AF00005D03EF4909581959F4F0895709561952E
:100B00007F4F0895AA1BBB1B51E107C0AA1FBB1F43
:100B1000A617B70710F0A61BB70B881F991F5A9589
:100B2000A9F780959095BC01CD010895EE0FFF1FA8
:0C0B30000590F491E02D0994F894FFCF9B
:100B3C0001000000000000000000010000000000A7
:100B4C000000000001000000000000000000010097
:100B5C000000000023018C00BA007001EB00C900FA
:100B6C00DD00080009000A000B000D0A0044726544
:100B7C00686520313830C2B02E2E2E0044454255C7
:100B8C00473A20537465707065722D4D6F746F7297
:100B9C00206175662050696E7320382C392C3130E9
:100BAC002C313120616B746976004665727469670B
:100BBC00210044454255473A204265776567756E7A
:100BCC006720616267657363686C6F7373656E0031
:100BDC00454E5453504552525400426572656974E7
:100BEC00202D202778272066C3BC722068616C6298
:100BFC006520556D64726568756E67004472C3BC80
:100C0C00636B6572706C617474653A204745535020
:100C1C0045525254004B6F6D6D616E646F733A2088
:100C2C002770273D656E747370657272656E2C202B
:100C3C00276C273D7370657272656E2C20277327A5
:100C4C003D737461747573004452C39C434B45529D
:100C5C00504C4154544520454E54535045525254D7
:100C6C00202D205479736F6E206B616E6E20547240
:100C7C006561747320686F6C656E21004452C39C6F
:100C8C00434B4552504C41545445204745535045D5
:100C9C00525254202D205479736F6E206D757373DE
:100CAC002077617274656E005354415455533A0069
:100CBC00546573742D427574746F6E20676564721D
:100CCC00C3BC636B742100546573742D42757474CA
:100CDC006F6E206C6F7367656C617373656E005417
:100CEC0059534F4E204452C39C434B5420444945C6
:100CFC0020504C41545445202D20545245415420F1
:100D0C004155534741424521004472C3BC636B6556
:100D1C0072706C617474652067657370657272743F
:100D2C00202D205479736F6E206D7573732077614D
:060D3C007274656E2100D7
:00000001FF
